:08083A00F590120842E4F5906C
:10084200900000AF82AE83E4FCFD7B507AC3F9F8DE
:09085200D312085C4003A380EA04
:01085B00227A
:10080000E4F508AF08A8077401088002C333D8FCD8
:1008100012083A0508E508C3940440E7750802E5A4
:1008200008C3940450DAAF08A8077401088002C313
:0A08300033D8FC12083A150880E5E1
:0300000002087281
:0C087200787FE4F6D8FD758108020800CC
:10085C00EB9FF5F0EA9E42F0E99D42F0EC6480C813
:06086C0064809845F022B3
:00000001FF
